S00B00004441544120492F4FF3
S113000000FF0004000400040004000400040004D1
S113001000040004000400040004000400040004BC
S113002000040004000400040004000400040004AC
S1130030000400040004000400040004000400049C
S1130040000400040004000400040004000400048C
S1130050000400040004000400040004000400047C
S1130060000400040004000400040004000400046C
S1130070000400040004000400040004000400045C
S1130080000400040004000400040004000400044C
S1130090000400040004000400040004000400043C
S11300A0000400040004000400040004000400042C
S11300B0000400040004000400040004000400041C
S11300C0000400040004000400040004000400040C
S11300D000040004000400040004000400040004FC
S11300E000040004000400040004000400040004EC
S11300F000040004000400040004000400040004DC