:020000020000FC
:0200040021D108
:020008001FD106
:02000C001DD104
:020010001BD102
:0200140019D100
:0200180017D1FE
:02001C0015D1FC
:0200200013D1FA
:0200240011D1F8
:020028000FD1F6
:02002C000DD1F4
:020030000BD1F2
:0200340009D1F0
:0200380007D1EE
:02003C0005D1EC
:0200400003D1EA
:0200440001D1E8
:02004800FFD0E7
:02004C00FDD0E5
:02005000FBD0E3
:02005400F9D0E1
:02005800F7D0DF
:02005C00F5D0DD
:02006000F3D0DB
:02006400F1D0D9
:02006800EFD0D7
:02006C00EDD0D5
:02007000EBD0D3
:02007400E9D0D1
:02007800E7D0CF
:02007C00E5D0CD
:02008000E3D0CB
:02008400E1D0C9
:02008800DFD0C7
:02008C00DDD0C5
:02009000DBD0C3
:02009400D9D0C1
:02009800D7D0BF
:02009C00D5D0BD
:0200A000D3D0BB
:0200A400D1D0B9
:0200A800CFD0B7
:0200AC00CDD0B5
:0200B000CBD0B3
:0200B400C9D0B1
:0200B800C7D0AF
:0200BC00C5D0AD
:0200C000C3D0AB
:0200C400C1D0A9
:0200C800BFD0A7
:0200CC00BDD0A5
:0200D000BBD0A3
:0200D400B9D0A1
:0200D800B7D09F
:0200DC00B5D09D
:1000E000B3D000200010FFFF39000A0041546D65B5
:1000F000676132353631AF93AFB7AF93BF93EF93AC
:10010000FF93B091CE00A0911202E0E0F2E0EA0F7E
:10011000F31DB083A395AF70A0931202FF91EF91EE
:0A012000BF91AF91AFBFAF911895EA
:0200900032C07C
:10012A000801BC059D041202F504BC059D041402D5
:10013A00F5047D0406FF72782D69737200000801C8
:10014A00BE009604A5009D04140200051905970631
:10015A009D040F007B069D041402F5049D04000211
:10016A00050600057D0407FF72783F2D697372004A
:10017A009F0008016F0E9D04140200059D041202DF
:10018A0000057B057D0407FF74782D706F6C6C0089
:10019A00B8000801DC009604CF009D04CE00F504E7
:1001AA007D0408FF74783F2D706F6C6CC8000801DD
:1001BA006F0E9D04C80000059D0420007B067D0487
:1001CA0004FF75627272D600D804C200C30FCD0F45
:1001DA0006FF2B7573617274E50008019D0498008F
:1001EA009D04C900F5049D0406009D04CA00F50497
:1001FA00E900190555079D04CD00F5049D04CC00BE
:06020A00F50495007D04DF
:040000000C94780ED6
:10021000BF93AF93DB0111969EF0FD015527EE0FC2
:10022000FF1F551F5BBF679177911196FB01552703
:10023000EE0FFF1F551F5BBF07911791F80109943F
:10024000E89463ED78E0F2CF0A920FB60A920F902D
:100250000F900F900A940092160209900FBE099019
:100260006894089502FF6D2BED000801FE113C0813
:100270007D0403FF75642A00320108011905670532
:10028000480641052C055E054806490505067D041E
:1002900004FF756D6178390108019D09C405960454
:1002A00052012C0541057D0404FF756D696E4801FE
:1002B00008019D09CF0596045E012C0541057D04CA
:1002C00008019D0400807B06820596046A019D0456
:1002D00001007D04B3057D040AFF6E616D653E6615
:1002E0006C61677354010801EF079D0400FF7B06F2
:1002F0007D0406FF6E65776573746C01AB041702AD
:1003000006FF6C61746573747901AB041B0208FF0E
:10031000286372656174652980010801EA0DE402B1
:1003200019057E019509E904C9027E01E9047D04ED
:1003300001005C0087010801D10D5805B609E904E8
:100340007D0401002800980108019D042900BD0DCD
:10035000A6097D0407FF636F6D70696C6500A101DC
:1003600008015E051905BA0F6705EF07BB017D049B
:1003700001FF2C00AA010801E609D007E60997064B
:10038000A80FE7097D0403005B275D00B8010801A1
:10039000470CD1017D0407006C69746572616C00C3
:1003A000C3010801B0019D04BB017D040800736C0A
:1003B00069746572616CCB010801B001AA0BB80BBE
:1003C0007D040801E609B001FFFF7D040801660F06
:1003D000E6092C05D0077D040801E6097D04080123
:1003E000660FBB017D040500616865616400D6018C
:1003F0000801B0018C04E1017D0402006966F3018B
:100400000801B0019604E1017D040400656C736588
:10041000FD010801B0018C04E1012C05E6017D0419
:1004200004007468656E05020801E6017D0405009C
:10043000626567696E0010020801EC017D04050029
:100440007768696C65001702080100022C057D04BD
:1004500006007265706561741F0208014102140292
:100460007D040500756E74696C00280208019D0406
:100470009604BB01EF017D040500616761696E00B0
:1004800031020801B0018C04EF017D040200646FA9
:100490003C020801B001F706EC01BC05A4027D0492
:1004A00004006C6F6F7046020801B00125078B02D3
:1004B0007D0405002B6C6F6F700050020801B001C5
:1004C00016078B027D0405006C6561766500590294
:1004D0000801B0013007F801A4027D0403003F6465
:1004E0006F0063020801B0017A02000249022C0584
:1004F000A4027D0408019D091612190567059604DA
:100500008202A6095E0565067D0407FF656E646CC0
:100510006F6F70006E020801EF01980221059604CA
:10052000940214028C048D027D0402FF6C3E85024D
:100530000801B702E104E1049D04FEFFB702C10611
:100540007D0402FF3E6C950208012212B702C1062B
:10055000B702E104E9047D0403FF6C703000A102DE
:10056000D8047C00C30FCD0F02FF6C70AC02AB044B
:100570001D0206FF637265617465B40208018D0196
:10058000ED02B001B8047D0406FF68656164657220
:10059000B9020801E6096705670519059005960483
:1005A000DB0219059D0400FF8406BC0B5E05BC0739
:1005B000BB015E057D049D04F0FF760C07FF776CA0
:1005C00073636F706500C40222107A00C30FCD0FF1
:1005D00006FF72657665616CDE0208017E01950991
:1005E000E10421059604F8027E01E1042C05980738
:1005F0007D040500646F65733E00E8020801B001E8
:100600001103B0010E94B00106037D049A938A93FE
:10061000CB0101967F917F916F91BF93AF93DB01E7
:10062000FBCD08015E057E019509E104BC078D1034
:10063000D0077D0401FF3A00F90208018D0128036B
:1006400041057D0407FF3A6E6F6E616D65001A0308
:100650000801E60919058501E904B00108013D0317
:100660007D0401003B0022030801B0017D04450325
:10067000ED027D0401FF5D00310308011D128209B6
:10068000E9047D0401005B003A030801BC0582090E
:10069000E9047D0408FF7661726961626C6542035A
:1006A0000801F7095C032212000A7D0408FF636F4A
:1006B0006E7374616E744A0308018D01ED02B0011E
:1006C000AB04BB017D0404FF75736572560308011A
:1006D0008D01ED02B001BE04BB017D04070072650F
:1006E000637572736500630308018501E104BB0152
:1006F0007D0409FF696D6D656469617465006E0351
:1007000008011B04BC071905EF079D04FF7F7B064A
:100710002C05D0077D0406005B636861725D790378
:100720000801B0019D041F0DBB017D04060061623C
:100730006F7274228B030801F808B001AD037D04C9
:1007400005FF61626F72740096030801B305760CB1
:1007500006FF3F61626F7274A003080149059604A9
:10076000B303DD0BA503A6097D0409FF6765742D9E
:10077000737461636B00A8030801190595092C05C2
:10078000BC0719056705BC052C057A029604D3033E
:10079000F70608079D068F0937050506BC072C05D7
:1007A000B3051607C903A6095E057D0409FF736535
:1007B000742D737461636B00B50308019D0998077C
:1007C0002C05BC057A029604EB03F7069509AE09E1
:1007D00098072507E60341057D0409FF6D61702D2B
:1007E000737461636B00D6030801190595092C0524
:1007F000BC078F09F5117A0296041004F706080762
:10080000BC072C05670570058704210596040C04B8
:100810005E05410530077D045E0522121607FF03C1
:100820004105BC057D040BFF6765742D637572720D
:10083000656E7400ED0308019D048200BC077D0411
:1008400009FF6765742D6F726465720013040801F7
:100850009D048600BC037D0407FF636F6D706172A9
:10086000650020043304BF93AF938C018991999163
:10087000DC01899199919C0189919991FC01ED90FC
:10088000F190EF1451F40A9519F02A95C1F701C0BF
:100890002A95022B11F4882702C08FEF00C0982FF1
:1008A000AF91BF91B9CC07FF6E66613E6C66610087
:1008B0002C040801811097066C0605067D040BFFC9
:1008C0006170706C7475726E6B6579005304080109
:1008D000F200A808730F1F0C77099D04E8032A068D
:1008E0005805150A5F0BAA0B04006B487A20DD0B34
:1008F0007D0404FF657869745F047E04AF91BF9145
:100900008BCC07FF6578656375746500790488048E
:10091000BC01899199918ACC8D04FD015527EE0F78
:10092000FF1F551F5BBFA791B79176CC9704982BFB
:100930008991999191F311966FCC9E049A938A9321
:10094000FD015527EE0FFF1F551F5BBF8791979144
:10095000119662CCAB049A938A93FB01319655278A
:10096000EE0FFF1F551F5BBF8791979155CCB804C1
:100970009A938A93CB0101964FCCBE049A938A93A3
:10098000FB0131965527EE0FFF1F551F5BBF879167
:100990009791840D951D40CC07FF2876616C756595
:1009A0002900810408018D01ED02B001D8047D0405
:1009B0002DDE1905BA0FEF0787047D0401FF400003
:1009C000CC04E204FC018191919126CC01FF21002D
:1009D000DE04EA04FC0189919991918380838991D5
:1009E00099911ACC02FF6321E604F604FC01899177
:1009F00099918083899199910FCC02FF6340F20411
:100A00000105FC019927808107CC02FF4075FD0498
:100A100008015E070506E1047D0402FF2175050556
:100A200008015E070506E9047D0403FF6475700094
:100A30000D051A059A938A93EFCB04FF3F647570F6
:100A400015052205082F092B11F09A938A93E4CB00
:100A500004FF737761701D052D058C0189919991B3
:100A60001A930A93D9CB04FF6F766572280538056F
:100A70009A938A938A819B81CFCB04FF64726F70B3
:100A80003305420589919991C7CB03FF726F7400BA
:100A90003D054A058C0129913991899199913A93A3
:100AA0002A931A930A93B8CB03FF6E697000450529
:100AB00059052296B1CB02FF723E54055F059A9309
:100AC0008A938F919F91A8CB02FF3E725B056805C8
:100AD0009F938F93899199919FCB02FF72406405F8
:100AE00071059A938A938F919F919F938F9394CB43
:100AF00002FF3C3E6D050801161282057D0402FFCF
:100B0000303D78058305982BD1F530C002FF303C8D
:100B10007F058A0597FD2AC032C002FF303E860558
:100B20009105821593055CF151F120C003FF6430FB
:100B30003E008D059B05821593058991999182054B
:100B40009305ECF0E1F012C003FF64303C00960521
:100B5000A905229697FD0C94B6050C94BF0504FFD9
:100B600074727565A405B4059A938A938FEF9FEF0D
:100B700053CB01FF3000AF05BD059A938A93C101A5
:100B80004BCB02FF753CB905C505299139918217F8
:100B90009307A8F3A1F3EACF02FF753EC105080150
:100BA0002C05C4057D0401FF3C00CC05D705299127
:100BB0003991281739071CF7D9CF01FF3E00D3051B
:100BC000E1052991399128173907CCF2C1F2CECF2E
:100BD00004FF6C6F6732DD05ED05FC01992780E1AC
:100BE0008A9522F0EE0FFF1FD8F716CB9A9514CBFB
:100BF00001FF2D00E805FC0509911991081B190B4F
:100C0000C8010ACB01FF2B00F805060609911991CE
:100C1000800F911F01CB02FF6D2A02060F068C0187
:100C2000899199919C0131027001209FC00130038C
:100C3000F308900DE11CF31C1203F308900DE11C66
:100C4000F31C9A938A93C701E7CA06FF756D2F6D4F
:100C50006F640B062B067C0129913991099119913A
:100C600040E15527000F111F221F331F551F2E155E
:100C70003F05520518F003952E193F094A9589F74B
:100C80003A932A93C801C8CA03FF756D2A00250646
:100C900049068C0189919991809FF0012227332781
:100CA000909FF00D211D331D819FF00D211D331DDF
:100CB000919F200D311DCF019A938A93C901ACCA2F
:100CC00006FF696E76657274440666068095909597
:100CD000A3CA02FF322F60066D06959587959CCAC0
:100CE00002FF322A69067406880F991F95CA03FF0E
:100CF000616E640070067C0609911991802391232E
:100D00008BCA02FF6F727706850609911991802BB5
:100D1000912B82CA03FF786F720081068F060991BA
:100D200019918027912778CA02FF312B8A069806ED
:100D3000019672CA02FF312D94069E0601976CCA75
:100D400006FF6C73686966749A06A606FC018991B1
:100D5000999131971AF0880F991FFBCF5DCA06FF52
:100D6000727368696674A006B506FC018991999151
:100D700031971AF096958795FBCF4ECA02FF2B212B
:100D8000AF06C206FC018991999120813181820FC1
:100D9000931F80839183899199913ECA03FF72705A
:100DA0004000BE06D3069A938A938DB79EB734CA85
:100DB00003FF72702100CE06DD062FB7F8948DBFB9
:100DC0009EBF2FBF8991999127CA03FF737040007E
:100DD000D806EA069A938A93CE011ECA03FF73705F
:100DE0002100E506F306EC018991999115CAF806F0
:100DF00029913991E0E83E0F821B930B3F932F938B
:100E00009F938F938991999107CA01FF6900EE061C
:100E100009079A938A938F919F91EF91FF91FF9386
:100E2000EF939F938F938E0F9F1FF6C91707EF9134
:100E3000FF91E80FF91F899199911BF0FF93EF93B0
:100E40006CCD0F911F911196E7C92607EF91FF9185
:100E50003196BBF3F3CF06FF756E6C6F6F700507AD
:100E600031071F910F911F910F91D6C906FF636D36
:100E70006F76653E2B073C07BF93AF93E991F991DD
:100E8000A991B991092F082B41F0E80FF91FA80F7C
:100E9000B91F1E9112930197E1F7AF91BF9189910C
:100EA0009991BAC902FF3E3C36075607092F982F81
:100EB000802FB2C903FF7570400052075F079A93F5
:100EC0008A93C201A9C903FF757021005A076807F8
:100ED0002C0189919991A0C903FF316D73006307BB
:100EE0007107E6E6FEE03197F1F7000095C903FFD0
:100EF000323E72006C077C07FC01899199919F93A7
:100F00008F93FF93EF938991999186C903FF327272
:100F10003E0077078B079A938A93EF91FF918F9109
:100F20009F919A938A93CF0177C902FF2165860723
:100F30009907FC01899199912FB7F89428D000B5B1
:100F4000081709F00BD0319622D000B5091711F01F
:100F5000892F04D02FBF899199915EC9F999FECF4D
:100F600007B700FDFDCFF2BDE1BD80BDFA9AF99A49
:100F7000089502FF40659507BD072FB7F894FC015F
:100F800006D080B5319603D090B52FBF45C9F999E9
:100F9000FECFF2BDE1BDF89A089502FF2169B907BD
:100FA0002210A200C30FCD0F04FF28692129CD070D
:100FB000D9079C0189919991AF93BF93CF93DF9308
:100FC000E1E0EBBFF0EFE0E01995DF91CF91BF9149
:080FD000AF918991999120C9AC
:020000023000CC
:10E0000010D0E094F0948E219F21982B19F0F90103
:10E0100003E023D0F90105E020D0F90101E11DD092
:10E020000895F901E078FF7FEF01A0E8B0E0FE017C
:10E030005527EE0FFF1F551F5BBF47915791FE01FC
:10E04000E217F30711F00A0102C07A010C0101E0A6
:10E0500004D02196119759F708951FB71F93F8948C
:10E06000F999FECF17B710FDFDCF5527EE0FFF1F13
:0EE07000551F5BBF07BFE8951F911FBF0895A6
:020000020000FC
:100FD80002FF4069D407F007FC015527EE0FFF1FF9
:100FE800551F5BBF8791979113C903FF6E3E72002F
:100FF800EC07FE07FC01082F899199919F938F9325
:101008000A95D1F7EF93FF938991999101C903FF4D
:101018006E723E00F90710089A938A93FF91EF9138
:101028000E2F8F919F919A938A930A95D1F7CF01AA
:10103800EFC803FF64322A000B08220809911991AE
:10104800000F111F881F991F1A930A93E1C803FF05
:1010580064322F001D0830080991199195958795DC
:10106800179507951A930A93D3C802FF642B2B0888
:101078003D0829913991E990F99049915991240FA6
:10108800351F8E1D9F1D3A932A93C2C802FF642DF7
:1010980039084E0829913991E990F9904991599167
:1010A800421B530BE80AF90A5A934A93C701B0C87E
:1010B80007FF64696E76657274004A0863080991CF
:1010C800199180959095009510951A930A93A0C848
:1010D80002FF643D5C0808014D08840682057D0412
:1010E80002FF752E6C080801BC05670B7D0403FF21
:1010F800752E720074080801BC052C05700B7D0460
:101108000DFF73686F772D776F72646C6973740065
:101118007B0808019D0493082C0566107D040801CE
:101128008110DD0B1F0CB3057D0405FF776F72641A
:101138007300840808019D048800BC078D087D049D
:1011480004FF2B696E749908A908789461C804FF94
:101158002D696E74A408B008F8945AC804FF696E23
:101168007421AB0808019D040000050698077D045A
:1011780004FF696E7440B20808019D04000005066A
:10118800BC077D0408FF696E742D74726170BC0819
:10119800CD088093160289919991689439C80801FD
:1011A8009D04160200059D0400000506BC0787047F
:1011B800DE087D04DF0801D02BC8189504FF70698C
:1011C800636BC608080197068F09E9060506E1045E
:1011D8007D0402002E22E2080801F808B001DD0BA8
:1011E8007D0402007322ED0808019D042200BD0D54
:1011F8008209E10496040109DC017D0404FF6669A3
:101208006C6CF50808014905490521059604130980
:10121800F511F70619050807F50425070E09410514
:101228007D040BFF656E7669726F6E6D656E740076
:101238000209AB04800009FF776F72646C697374EC
:101248007300000008019D0408007D0404FF2F704E
:1012580061641F090801E906BC09FB057D0405FF57
:101268002F686F6C64002A090801BC09F709FB059F
:101278007D040AFF666F7274682D6E616D653309AF
:101288000801AA0B0700616D666F727468007D041F
:1012980007FF76657273696F6E003D0908019D044A
:1012A8003D007D0403FF637075004C0908019D042F
:1012B8007500090C7D0408FF6D63752D696E666FF6
:1012C800560908019D0471007D0405FF2F7573659B
:1012D80072005F0908019D0426007D0405FF665F12
:1012E80063707500150908019D0400009D04E10064
:1012F8007D0405FF7374617465007209AB041F02F5
:1013080004FF626173657D09BE040C0005FF636517
:101318006C6C73008409740605FF63656C6C2B00A4
:101328008A09960902960C940C0104FF32647570C0
:1013380090090801370537057D0405FF3264726F8F
:10134800700099090801410541057D0404FF747581
:10135800636BA10908012C0537057D0403FF3E696D
:101368006E00AA09BE04180003FF70616400B20988
:101378000801F7099D04280005067D0404FF656D32
:101388006974B80922100E00EB0FF70F05FF656DA1
:1013980069743F00C20922101000EB0FF70F03FF1A
:1013A8006B657900CA0922101200EB0FF70F04FFD2
:1013B8006B65793FD30922101400EB0FF70F02FF7A
:1013C8006470DB09D8047400C30FCD0F05FF65688E
:1013D80065726500E309D8047800C30FCD0F04FFD8
:1013E80068657265EA09D8047600C30FCD0F05FF5A
:1013F800616C6C6F7400F3090801F7090506A80F02
:10140800F8097D0403FF62696E00FB0908012212D6
:101418008809E9047D0407FF646563696D616C00F0
:10142800060A08019D040A008809E9047D0403FFEF
:10143800686578000F0A08019D0410008809E9040E
:101448007D0402FF626C1B0AAB04200007FF747561
:10145800726E6B657900250A22107E00C30FCD0FCE
:1014680004FF2F6D6F642A0A390A9C0109911991AA
:10147800412F432717FF04C0109500950F5F1F4F9A
:1014880037FF04C0309520952F5F3F4FEE24FF189B
:1014980051E1001F111F5A9539F447FF04C01095F8
:1014A80000950F5F1F4F0BC0EE1CFF1CE21AF30ADA
:1014B80020F4E20EF31E8894ECCF0894EACFFA9257
:1014C800EA92C8010C940C0105FF752F6D6F64003A
:1014D800340A08016705BC055E052A067D0406FF77
:1014E8006E6567617465680A0801650697067D047C
:1014F80001FF2F00730A0801380A58057D0403FF0D
:101508006D6F64007C0A0801380A41057D0403FFF9
:1015180061627300830A900A99231AF48095909562
:1015280001960C940C0103FF6D696E008B0A08018B
:101538009D09E0059604A10A2C0541057D0403FFD9
:101548006D617800970A08019D09D6059604AD0AD1
:101558002C0541057D0406FF77697468696EA30A46
:1015680008013705FB056705FB055E05C4057D0415
:1015780007FF746F757070657200AF0A080119056E
:101588009D0461009D047B00B40A9604CE0A9D0464
:10159800DF007B067D0407FF746F6C6F7765720050
:1015A800BC0A080119059D0441009D045B00B40AAA
:1015B8009604E10A9D04200084067D0403FF686CFC
:1015C8006400CF0AAB04210204FF686F6C64E20A6E
:1015D8000801E60A1905E1049D06190567052C05A9
:1015E800E9045E05F5047D0402FF3C23E80A0801CE
:1015F800BC09E60AE9047D0401FF2300F80A080192
:101608008809E104800B49059D0409003705D605C2
:101618009604110B9D04070005069D04300005067D
:10162800EC0A7D0402FF2373000B0801030B9D09DC
:101638008406820596041A0B7D0402FF233E160BCE
:101648000801A609E60AE104BC093705FB057D0483
:1016580004FF7369676E210B080189059604370B2F
:101668009D042D00EC0A7D0403FF642E72002C0BF0
:1016780008016705AE09E310FB0A190B4905300B91
:10168800240B5E053705FB05280C380C7D0402FF8A
:101698002E72380B08016705FE115E053C0B7D04B0
:1016A80002FF642E4B0B0801BC053C0B1F0C7D048C
:1016B80001FF2E00540B0801FE11570B7D0403FF98
:1016C80075642E005C0B0801BC05700B1F0C7D04B3
:1016D80004FF75642E72630B08016705FB0A190B7A
:1016E800240B5E053705FB05280C380C7D0406FF26
:1016F80075642F6D6F646C0B08016705BC05700578
:101708002A065E052C0567052A065E057D0406FF88
:1017180064696769743F7B0B0801C20A19059D0457
:101728003900E0059D0400017B06050619059D04A6
:101738004001E0059D0407017B06FB059D04300080
:10174800FB0519058809E104C4057D040801700535
:10175800090C5E05370597066C06050697066705AA
:101768007D0402FF732C8B0B08011905BC0B7D044B
:101778000801BB0119056C06AE097306FB05670570
:10178800BC057A029604CF0BF7061905E104BB01E4
:1017980095092507C90B5E0590059604D60B190512
:1017A8000005BB0141057D0405FF6974797065007A
:1017B800B50B080119056C06AE097306FB0567052C
:1017C800BC057A029604F10BF7061905EF0719050F
:1017D800FE0BFA0B97062507E90B5E0590059604A4
:1017E800F80B1905EF07FE0B41057D0408015507A5
:1017F800FE0B7D0408019D04FF007B06C6097D04DD
:1018080006FF69636F756E74D80B08011905970692
:101818002C05EF077D0402FF6372040C08019D0488
:101828000D00C6099D040A00C6097D0405FF7370F2
:10183800616365000F0C0801280AC6097D0406FFCC
:101848007370616365731A0C0801BC05A70A190552
:101858009604320C1F0C9D068C042B0C41057D044C
:1018680004FF74797065230C0801F5117A02960457
:10187800430CF70608070005C60925073E0C7D043A
:1018880001FF2700340C0801EA0DE70E440F161279
:101898009604500C41057D049D04F3FF760C07FF68
:1018A80068616E646C657200440CBE040A0005FF32
:1018B800636174636800530C0801E9066705590CF5
:1018C800E1046705D206590CE90487045E05590C42
:1018D800E9045E054105BC057D0405FF7468726F67
:1018E80077005B0C08011905820596047D0C4105FB
:1018F8007D04590CE104DC065E05590CE9045E051B
:101908002C056705F20641055E057D0405FF637336
:101918006B697000710C08016705190596049E0C27
:10192800370500057005161296049E0C1D12DB0D76
:101938008C04910C5E0541057D0405FF63736361AA
:101948006E008A0C08016705370519050005700542
:10195800161282059604BB0C2C059D062C0537052E
:10196800890582059604BB0C97068C04A90C5805BA
:101978003705FB055E0541057D0406FF6163636568
:101988007074A10C0801370505069D063705D709AF
:101998001905070D82059604F90C19059D04080020
:1019A80016129604E90C410549059D09E0056705ED
:1019B800490549055E059604E70CFF0C9D06670579
:1019C80037055E054C018C04F70C1905280AD60565
:1019D8009604F00C4105280A1905C6093705F504CF
:1019E8009706370558018C04CB0C410558052C0582
:1019F800FB05120C7D0408019D0408001905C609A1
:101A08001F0CC6097D04080119059D040D00161256
:101A18002C059D040A00161284067D0406FF7265D3
:101A280066696C6CC10C22101A00EB0FF70F04FFEB
:101A380063686172120D0801EA0D410500057D0415
:101A480006FF6E756D6265721B0D08018809E10459
:101A580067056D0D6705800D6D0D5E0584066705CC
:101A6800190582059604400DA6095E0541055E0527
:101A78008809E904BC057D047B07BC05BC058A0709
:101A88009E0D21059604620D1D1216129604590D1D
:101A980000059D042E00161296045A0D5E05960444
:101AA800560DF01022128C04680D4105A6095E053A
:101AB80041055E058809E904BC057D04A6095E05A3
:101AC8009604670D780A1D125E058809E904B305B6
:101AD8007D040801370500059D042D00161219051F
:101AE80067059604790D1D12DB0D5E057D04B804AB
:101AF8000A00100002000A000801370500059D04CD
:101B08002300FB051905BC059D040400B40A9604CE
:101B1800960D7B0D0506EF078809E9041D12DB0DFC
:101B28008C04970D41057D0407FF3E6E756D626557
:101B38007200240D080119059604B70D3705000534
:101B4800900B82059604AA0D41057D0467051511C1
:101B58008809E1043D015E05350115119D04010068
:101B6800DB0D8C049F0D7D0405FF706172736500A9
:101B7800980D08016705D10DB609E104DB0D5E0576
:101B8800A60C19059706B609C1061D12DB0D7D04C2
:101B980006FF736F75726365B80D22101600EB0FA0
:101BA800F70F07FF2F737472696E6700CC0D080179
:101BB80049053705050649054905FB057D040AFF62
:101BC80070617273652D6E616D65D50D0801280A07
:101BD800EE0D7D0408016705D10DB609E104DB0DA2
:101BE80070058F0C5E05A60C9D090506D10D4105F3
:101BF800FB05B609E9047D0409FF66696E642D6E6C
:101C0800616D6500E30D08019D04130E9D048600B7
:101C1800F40382059604120EA609BC057D0408018A
:101C280067059D095E05341019059604200E6705A1
:101C3800580558055E05B3057D040801AA0B030085
:101C4800206F6B00DD0B7D040801AA0B02003E200B
:101C5800120CDD0B7D040801AA0B0400203F3F2075
:101C6800DD0B8809E1046705150A5F0BB609E10475
:101C78005F0B5E058809E9047D0404FF71756974CA
:101C8800000E0801B002B702E904A60EF206B30E70
:101C9800DC0645038209E10482059604540E280EE9
:101CA800170D96044E0E9D04CC0E600C210596046B
:101CB800660E19059D04FEFFD6059604640E2F0EC8
:101CC8008C04460E210E8C044E0E7D0405FF7061B7
:101CD80075736500410E22102302D70FE10F04FF30
:101CE800636F6C646A0E780EA4B62224332424BE73
:101CF800E0E0F2E02192E030E9F7F232D9F7E5E2EC
:101D0800F2E02F010FEF0DBF048311E21EBF158310
:101D1800CFEAC683D1E2D783A9E9BEE00C940C01CF
:101D280004FF7761726D730E080160119D048E0FB8
:101D38009D046F0E02104503300A450E03FF7370B1
:101D48003000940ED8040600EB0FF70F02FF7370F3
:101D5800A20EBE04080003FF72703000AA0E08012C
:101D6800B70EE1047D04BE04040005FF64657074C9
:101D78006800AF0E0801A60EE906FB056C069D0675
:101D88007D0409FF696E7465727072657400B90E1E
:101D98000801EA0D19059604DC0EE70E8209E10434
:101DA8009604D70EBA0FEF078704660F8C04CD0E82
:101DB800A6097D040DFF646F2D7265636F676E69F8
:101DC8007A657200C50E08019D04F30E9D04980003
:101DD800F40382059604F20EA609590F7D04080142
:101DE800490549059D097B07490587048A0749056F
:101DF8001905590F16129604040F4105BC057D04F8
:101E080058055805B3057D0405FF723A6E756D00D7
:101E1800DE0EB8048E0FD101D10106FF723A646E4E
:101E2800756D080FB8048E0F0E120E1207FF72653B
:101E3800633A6E756D00110F0801290D96042C0F79
:101E48001D12161296042A0F0D0F7D04160F7D041D
:101E5800590F7D0408FF7265633A776F72641A0F31
:101E68000801070E1905820596043D0F4105590F13
:101E78007D04440F7D0406FF723A776F72642E0F5B
:101E8800B804480F4C0F0E120801410587047D0461
:101E9800080189059604520FBB017D0487047D045F
:101EA80006FF723A6661696C3F0FB8045D0F5D0FFB
:101EB8005D0F08019D04F3FF760C06FF3F73746104
:101EC800636B540F0801BE0E890596046E0F9D04BE
:101ED800FCFF760C7D0403FF76657200610F080134
:101EE8004409DD0B1F0C8809E1045209150AFE118B
:101EF800FB0A030B9D042E00EC0A190B240B380C6B
:101F08008809E9041F0C5A09DD0B7D0404FF6E6F74
:101F18006F706F0F08017D0406FF756E7573656439
:101F28008A0F0801E906F709FB057D040200746FB2
:101F3800900F0801470C07128209E1049604AE0FBE
:101F4800B001A80FBB017D0408015E051905BA0F91
:101F58006705EF071905BA0FBA0FEF0787047D0465
:101F680007FF692D63656C6C2B009A0F08019706B3
:101F78007D0407FF4564656665724000B40F08017B
:101F8800EF07BC077D0407FF45646566657221009D
:101F9800BD0F0801EF0798077D0407FF52646566C7
:101FA80065724000C70F0801EF07E1047D0407FFD1
:101FB8005264656665722100D10F0801EF07E904D4
:101FC8007D0407FF5564656665724000DB0F0801F4
:101FD800EF075E070506E1047D0407FF55646566A3
:101FE80065722100E50F0801EF075E070506E904A1
:101FF8007D0406FF646566657221F10F080107120A
:102008001905BA0FBA0FEF0787047D0406FF646548
:1020180066657240FD0F080107121905BA0FEF0730
:1020280087047D0407FF28646566657229000A1025
:1020380008018D01ED02B00122107D040E94060303
:102048001905BA0FEF07870487047D040FFF73652E
:10205800617263682D776F72646C6973740016100F
:1020680008016705BC059D0449105E056610190541
:10207800820596044310A6094105BC057D0419058F
:102088008D102C05730160017D0408016705410569
:102098009D09700581109710960457105E0541053B
:1020A800BC05B3057D04A6095E05BC057D0411FFCA
:1020B80074726176657273652D776F72646C69737B
:1020C80074002A100801BC071905960477109D09A9
:1020D8007B072C0587048A0749059604771059045D
:1020E800EF078C046810A6097D040BFF6E616D650F
:1020F8003E737472696E67005B100801090C9D04D9
:10210800FF007B067D0407FF6E66613E6366610023
:1021180079100801590497067D0408FF69636F6DFB
:102128007061726587100801670537055E057B05D4
:102138009604A210A6094105B3057D042C05BC052B
:102148007A029604C510F7063705E1043705EF074C
:1021580019059D040001C4059604B6102C059D04BC
:10216800FF007B067B059604BD10A609B305300762
:102178007D0497062C0595092C059D040200160779
:10218800A810A609BC057D0401FF2A0091100801CA
:102198000E0641057D0401FF6A00C8100801D20639
:1021A8009D0407000506E104D2069D040900050602
:1021B800E10405067D0404FF64616273CF10080121
:1021C800190589059604E910F0107D0407FF646E6F
:1021D800656761746500DF10080162089D040100ED
:1021E800BC053C087D0405FF636D6F766500EA1049
:1021F800FD10BF93AF93E991F991A991B991092F76
:10220800082B21F01D9111930197E1F7AF91BF9130
:10221800899199910C940C0105FF327377617000D4
:10222800F71008014905670549055E057D040AFFA1
:10223800726566696C6C2D746962101108013E1133
:102248009D045A00C60C4411E904BC05B609E9040A
:10225800B3057D040AFF736F757263652D74696237
:102268001B1108013E114411E1047D0403FF746948
:1022780062002E11AB044B0204FF237469623A1109
:10228800AB04A50206FF65653E72616D4011080149
:10229800BC05F7063705BC073705E90495092C0581
:1022A80095092C0525074E11A6097D0408FF696EBE
:1022B80069742D72616D461108019D04A6005E07C0
:1022C8009D041C006C064B117D040BFF7365742D77
:1022D80063757272656E74005A1108019D0482005C
:1022E80098077D0408FF776F72646C6973746911CD
:1022F8000801EF09BC053705980719059509A80FC6
:10230800F0097D040EFF666F7274682D776F726432
:102318006C6973747611AB04840009FF7365742DBE
:102328006F7264657200861108019D048600DD03E2
:102338007D040FFF7365742D7265636F676E697A2C
:1023480065727300911108019D049800DD037D04F6
:102358000FFF6765742D7265636F676E697A6572C2
:1023680073009D1108019D049800BC037D0404FFBF
:10237800636F6465AC1108018D01ED02E609BA0FBF
:10238800BB017D0408FF656E642D636F6465BB1136
:102398000801B0010C94B0010C017D0408FF286D00
:1023A80061726B657229C611D804A400C30FCD0FE2
:1023B8000800706F7374706F6E65D2110801EA0DB2
:1023C800E70E19056705BA0FBA0FEF0787045E0510
:1023D800BA0FEF07BB017D0406FF626F756E647369
:1023E800DC110801370505062C057D0403FF733E43
:1023F8006400F0110801190589057D0405FF3E6296
:102408006F647900FA1198060800326C6974657275
:10241800616C021208012C05D101D1017D0401FF74
:102428003D0008120801FB0582057D0401FF31000B
:102438001312AB04010001FF32001A12AB040200B0
:0A24480002FF2D311F12AB04FFFF4D
:00000001FF
