:1000000013C02DC02CC02BC02AC02AC028C027C0B6
:1000100026C025C024C023C022C021C020C01FC0CC
:100020001EC01DC01CC01BC011241FBECFEFD1E0DD
:10003000DEBFCDBF11E0A0E0B1E0E0E6F2E002C03B
:1000400005900D92A031B107D9F711E0A0E1B1E020
:1000500001C01D92A231B107E1F7ADD0FFC0D0CFF2
:100060001F920F920FB60F9211248F939F934B9B69
:100070000FC04C9B14C0809111018F5F80931101C0
:100080009091110180911001891714F410921101BF
:100090009F918F910F900FBE0F901F901895809198
:1000A00011018150809311018091110187FFF0CFE0
:1000B0008091100180931101EBCF1D9934C098B14C
:1000C000E0911101FF27E7FDF095E050FF4F80819F
:1000D0008370892B88B998B1E0911101FF27E7FD62
:1000E000F095E050FF4F80818360892388B935996E
:1000F0001FC098B1E0911101FF27E7FDF095E05096
:10010000FF4F80818C70892B88B998B1E0911101E3
:10011000FF27E7FDF095E050FF4F80818C60892339
:1001200088B91D9BCCCF88B18C7F88B9359BE1CF36
:1001300088B1837F88B9C1CF1D9934C098B1E0914F
:100140001101FF27E7FDF095E85FFE4F8081837086
:10015000892B88B998B1E0911101FF27E7FDF0954F
:10016000E85FFE4F80818360892388B935991FC07D
:1001700098B1E0911101FF27E7FDF095E85FFE4F90
:1001800080818C70892B88B998B1E0911101FF278B
:10019000E7FDF095E85FFE4F80818C60892388B988
:1001A0001D9BCCCF88B18C7F88B9359BE1CF88B1BE
:1001B000837F88B9C1CF109211018FE087B986E0A3
:1001C0008AB98091680084608093680080916D0096
:1001D000886080936D00789487E0809310011D996A
:1001E00034C098B1E0911101FF27E7FDF095E85F79
:1001F000FE4F80818370892B88B998B1E0911101FD
:10020000FF27E7FDF095E85FFE4F8081836089233B
:1002100088B935991FC098B1E0911101FF27E7FD1A
:10022000F095E85FFE4F80818C70892B88B998B17A
:10023000E0911101FF27E7FDF095E85FFE4F808117
:100240008C60892388B91D9BCCCF88B18C7F88B9FD
:10025000359BE1CF88B1837F88B9C1CFF894FFCFB8
:10026000010402080905060A01050406020A080934
:00000001FF
