:100000000C9472000C948F000C9444090C948F0093
:100010000C947D0A0C948F000C9483090C948F002F
:100020000C948F000C948F000C948F000C948F0014
:100030000C948F000C948F000C948F000C948F0004
:100040000C948F000C948F000C948F000C948F00F4
:100050000C948F000C948F000C948F000C948F00E4
:100060000C948F000C948F000C948F000C948F00D4
:100070000C948F000C948F000C948F000C948F00C4
:100080000C94E5080C948F000C948F000C948F0056
:100090000C948F000C948F000C948F000C948F00A4
:1000A0000C948F000C948F000C948F000C948F0094
:1000B0000C948F000C948F000C948F000C948F0084
:1000C0000C948F000C948F000C948F000C948F0074
:1000D0000C948F000C948F000C948F000C948F0064
:1000E0000C948F0011241FBECFEFD1E2DEBFCDBF35
:1000F00012E0A0E0B2E0E4E8FBE102C005900D925E
:10010000AE3CB107D9F722E0AEECB2E001C01D92DF
:10011000A43FB207E1F70E9469050C94C00D0C944E
:100120000000ECE7F0E0808180648083EAE7F0E0A3
:100130008081876880830895ECE7F0E09081987F64
:100140008770892B8083EAE7F0E080818064808378
:10015000808184FFFDCF209178008091790090E02C
:10016000982F882788279F72822B0895DF92EF921D
:10017000FF920F931F93CF93DF93E62EF12C1E1463
:100180001F04ACF4D82EC0E0D0E000E010E08D2DCC
:100190000E949C00080F191F8FE99FE00197F1F75B
:1001A00000C000002196CE15DF0589F702C000E0EF
:1001B00010E0C801B7010E94630DCB01DF91CF9120
:1001C0001F910F91FF90EF90DF900895EAE0F1E02A
:1001D00080818F638083519880818F7780836C9832
:1001E000089523E030E0EBE0F1E0808181608083DE
:1001F0008FE39CE90197F1F700C0000080818E7FBA
:1002000080838081826080838FE39CE90197F1F78E
:1002100000C0000080818D7F808380818460808326
:100220008FE39CE90197F1F700C0000080818B7F8C
:1002300080838081886080838FE39CE90197F1F758
:1002400000C000008081877F8083808180618083FF
:100250008FE39CE90197F1F700C0000080818F7E59
:1002600080838081806280838FE39CE90197F1F72E
:1002700000C000008FE39CE90197F1F700C0000087
:1002800080818F7D80838081806180838FE39CE982
:100290000197F1F700C0000080818F7E808380810C
:1002A000886080838FE39CE90197F1F700C000002C
:1002B0008081877F80838081846080838FE39CE955
:1002C0000197F1F700C0000080818B7F80838081DF
:1002D000826080838FE39CE90197F1F700C0000002
:1002E00080818D7F80838081816080838FE39CE922
:1002F0000197F1F700C0000080818E7F808321503C
:10030000310909F072CF0895982F613009F059C072
:10031000811109C0E9E6F0E08081816080838081FD
:100320008D7F8083ABC0813049F4E9E6F0E08081C5
:10033000846080838081877F8083A8C0823049F475
:10034000E9E6F0E080818061808380818F7D808319
:10035000A5C0833049F4E9E6F0E0808180648083C1
:1003600080818F778083A2C0843049F4EAE6F0E090
:1003700080818160808380818D7F80839FC0853074
:1003800049F4EAE6F0E08081846080838081877FA1
:1003900080839CC0863049F4EAE6F0E08081806189
:1003A000808380818F7D808399C0873009F0A3C0CE
:1003B000EAE6F0E080818064808380818F778083AB
:1003C00095C0611159C0811109C0E9E6F0E0808152
:1003D0008260808380818E7F80838DC0813049F4EC
:1003E000E9E6F0E080818860808380818B7F808374
:1003F00082C0823049F4E9E6F0E080818062808347
:1004000080818F7E808377C0833049F4E9E6F0E015
:1004100080818068808380818F7B80836CC0843002
:1004200049F4EAE6F0E080818260808380818E7FFB
:10043000808361C0853049F4EAE6F0E0808188601D
:10044000808380818B7F808356C0863049F4EAE6C2
:10045000F0E080818062808380818F7E80834BC0CA
:10046000873009F048C0EAE6F0E080818068808348
:1004700080818F7B80833FC0811106C0E9E6F0E078
:1004800080818360808337C0813031F4E9E6F0E019
:1004900080818C6080832FC0823031F4E9E6F0E007
:1004A00080818063808327C0833031F4E9E6F0E007
:1004B0008081806C80831FC0843031F4EAE6F0E0F4
:1004C00080818360808317C0853031F4EAE6F0E0F4
:1004D00080818C6080830FC0863031F4EAE6F0E0E2
:1004E00080818063808307C0873029F4EAE6F0E0EA
:1004F0008081806C80834DB321E030E0B90102C07F
:10050000660F771F9A95E2F7CB01842B8DBB089578
:10051000CF9381110AC080B190E002C09595879574
:100520006A95E2F7C82FC1707DC0813051F483B164
:1005300090E002C0959587956A95E2F7C82FC17043
:1005400071C0823051F486B190E002C095958795D4
:100550006A95E2F7C82FC17065C0833051F489B144
:1005600090E002C0959587956A95E2F7C82FC17013
:1005700059C0843051F48CB190E002C095958795B4
:100580006A95E2F7C82FC1704DC0853051F48FB124
:1005900090E002C0959587956A95E2F7C82FC170E3
:1005A00041C0863051F482B390E002C095958795A2
:1005B0006A95E2F7C82FC17035C0873059F4809131
:1005C000000190E002C0959587956A95E2F7C82FE3
:1005D000C17028C0883059F48091030190E002C0B6
:1005E000959587956A95E2F7C82FC1701BC0893031
:1005F00059F48091060190E002C0959587956A951F
:10060000E2F7C82FC1700EC08A3059F480910901F9
:1006100090E002C0959587956A95E2F7C82FC17062
:1006200001C0C0E08C2F90E00E948B0A8C2FCF91EC
:10063000089580FF02C0439A01C0439881FF02C021
:10064000449A01C0449882FF02C0459A01C045986F
:1006500083FF02C0469A01C0469884FF02C0479AB1
:1006600001C0479885FF02C0A09A01C0A09886FFEC
:1006700002C0A19A01C0A198882314F45F9A08953A
:100680005F9808950E94190342984198409A8FE814
:1006900091E00197F1F700C000004098089587B1FC
:1006A0008FEF87B983B3836083BB579A40982FEF4E
:1006B00083ED90E3215080409040E1F700C00000BE
:1006C00080E30E9442038FE39CE90197F1F700C0A9
:1006D000000088E30E94420380E10E9442038CE014
:1006E0000E94420381E00E94420386E00E9442038E
:1006F00008950E941903429A4198409A8FE891E028
:100700000197F1F700C0000040980895CF93DF9360
:1007100000D0CDB7DEB790E8998390EC9A83FE01C4
:10072000E80FF11D61508081860F0E9442038FE81F
:1007300091E00197F1F700C000000F900F90DF915A
:10074000CF9108950F931F93CF93FC01808188234D
:1007500059F08F01C0E00E947903CF5FF801EC0FE0
:10076000F11D80818111F7CFCF911F910F910895D5
:10077000CF93DF93CDB7DEB760970FB6F894DEBFA7
:100780000FBECDBFFC01009741F02AE030E0B90177
:100790000E94630DCB010097D1F74AE0BE016F5F65
:1007A0007F4FCF010E948B0DCE0101960E94A203C4
:1007B00060960FB6F894DEBF0FBECDBFDF91CF912C
:1007C0000895BC01990F880B990B0E94410C2CEEE7
:1007D00031E548EB5FE30E94F60C20E030E040EEAC
:1007E00050E40E94250B0E94090CAB019B012D5C7B
:1007F000314029353105C8F0673222E072072CF00C
:100800004D5E5140440F551F12C06C3C21E07207F1
:1008100074F42DEE31E0C901861B970B91958195FB
:100820009109AC01440F551F02C040E050E0CA01DD
:10083000493E534014F088EE93E00895CF92DF9242
:10084000EF92FF922CEE31E548EB5FE30E94F60C4D
:1008500020E030E040EE50E40E94250B6B017C016B
:1008600020E030E849E054E40E94920B88235CF4D5
:1008700020E030E046EE53E4C701B6010E94F10CDF
:1008800018160CF45CC020E030E849E054E4C701DD
:10089000B6010E94F10C1816ACF420E030E846EFE7
:1008A00053E4C701B6010E94250B9B01AC010E94D5
:1008B000260B2AE939E941EB51E40E94970B6B01C1
:1008C0007C0120C020E030E046EE53E4C701B601D1
:1008D0000E94920B8823B4F4A701960160E070E8AF
:1008E00086EF93E40E94250B20E030E040E050ECDE
:1008F0000E94F60C2AE939E941EB51E40E94970B7A
:100900006B017C0120E030E04AE754E4C701B60106
:100910000E94F10C1816BCF020E030E04AE754ECDD
:10092000C701B6010E94920B8823ACF40F2EC12C94
:10093000D12CFAE7EF2EF4ECFF2EF02D0CC0C12CD9
:10094000D12C760108C00F2EC12CD12CFAE7EF2E46
:10095000F4E4FF2EF02DC701B6010E94090CCB0173
:10096000FF90EF90DF90CF90089563E085E00E94C4
:10097000B600BC01990F880B990B0E94410C20E036
:1009800030E849E854E40E94970B6093E4027093C6
:10099000E5028093E6029093E702089561E081E02A
:1009A0000E9486038AE092E00E94A20367E081E051
:1009B0000E9486038EEB92E00E94A2036AE081E02F
:1009C0000E9486038EEB92E00E94A20361E082E027
:1009D0000E9486038FE092E00E94A20367E082E01B
:1009E0000E9486038EEB92E00E94A2036AE082E0FE
:1009F0000E9486038EEB92E00E94A20365E081E0F4
:100A00000E9486038091E20290E00E94B80368E0B1
:100A100081E00E9486038091E10290E00E94B80389
:100A20006BE081E00E9486036091DD027091DE023E
:100A30008091DF029091E0020E94090CCB010E949C
:100A4000B8038EE792E00E94A20365E082E00E9474
:100A500086038091DC0290E00E94B80368E082E0A7
:100A60000E9486038091DB0290E00E94B8036BE055
:100A700082E00E9486036091D7027091D802809133
:100A8000D9029091DA020E94090CCB010E94B803AE
:100A90008AE792E00E94A2030895E1E8F0E08081F5
:100AA000846080830895E0E9F0E08081806880833D
:100AB000E1E9F0E080818D60808380E19AE79093A6
:100AC000990080939800E1E7F0E080818260808364
:100AD00008950E94E60060E081E00E94840160E0E9
:100AE00085E00E9484010E944D050E9453050E94EA
:100AF0004F030E9491008FE39CE90197F1F700C03A
:100B0000000061E081E00E94860384E192E00E949F
:100B1000A203EFEDFEE23197F1F700C0000081E0A3
:100B20000E941C0B0E94990981E00E9442030E94CE
:100B3000F1000E94D90985E092E00E94490A80E014
:100B400092E00E94410A8FE39CE90197F1F700C00F
:100B5000000081E00E944203EFEDFEE23197F1F7E1
:100B600000C0000061E081E00E94860384E292E020
:100B70000E94A203FFEF23ED80E3F150204080406C
:100B8000E1F700C00000789481E00E944203EFED9D
:100B9000FEE23197F1F700C0000061E081E00E94C1
:100BA000860385E392E00E94A2030F2EFBE0EF2E66
:100BB000FF24F394F02D00EF12E00F2EF8EEAF2E8D
:100BC000F2E0BF2EF02DC4E8D0E06894992492F8AA
:100BD0000F2EFDE22F2E312CF02D0F2EFFE48F2E45
:100BE000F02D8091D602833320F01092D6020E941D
:100BF000D9098091CE02811119C08091D202882337
:100C000009F453C08091D10281114FC061E081E0AD
:100C10000E94860383E492E00E94A20361E082E0E6
:100C20000E94860381E592E00E94A2038091CE0299
:100C30008130D9F58091D002811111C061E081E04D
:100C40000E94860381E692E00E94A20361E082E0B6
:100C50000E9486038FE692E00E94A20326C0809144
:100C6000D302882331F08091D10281111EC00E94ED
:100C7000CE048091D2028823C1F08091D1028111EB
:100C800014C08091D302811110C061E081E00E9404
:100C9000860380E892E00E94A20361E082E00E9465
:100CA00086038EE892E00E94A2038091D402909184
:100CB000D50201969093D5028093D402F7019081DA
:100CC00081E0892780838091D00281113EC080918C
:100CD000CF02811169C28091CE02813009F064C2D5
:100CE0008093CF022EE4F801208363E0C8010E94C4
:100CF000590A85E38A95F1F700001982188212C01B
:100D000088819981893B9B4068F081E08093E30270
:100D10008091D6028F5F8093D602F701808189256A
:100D2000808304C00E94B409882351F38091E302B8
:100D3000811106C081E08093D2021092D10205C0D9
:100D40001092E30281E08093D1028091D002813041
:100D5000D1F58091CF02811120C281E08093CF0232
:100D600029E5F801208363E0C8010E94590A85E360
:100D70008A95F1F700001982188212C08881998142
:100D8000893B9B4068F081E08093E3028091D6022A
:100D90008F5F8093D602F70180818925808304C00C
:100DA0000E94B409882351F38091E302811106C0A7
:100DB00081E08093D2021092D10205C01092E3022A
:100DC00081E08093D1028091D4029091D502C297A4
:100DD00009F080C08091D002882309F4FDC021E48D
:100DE000F801208363E0C8010E94590A1982188221
:100DF00012C088819981893B9B4068F081E0809393
:100E0000E3028091D6028F5F8093D602F701808142
:100E10008925808304C00E94B409882351F38091FE
:100E2000E302811155C00E94C8091982188214C0BA
:100E300088819981893B9B4078F081E08093E3022F
:100E40008091D6028F5F8093D602F7018081F0E215
:100E50008F27F701808304C00E94A709882341F3EC
:100E60008091E30281112FC0C8010E941A0AF80183
:100E70008081882329F191E09093D3028093E2024C
:100E800081818093E1026281062E000C770B880B32
:100E9000990B0E94410C20E030E048EC52E40E94A3
:100EA000970B20E030E040E752E40E94F60C60939C
:100EB000DD027093DE028093DF029093E0020AC0AD
:100EC0001092D30207C01092D3021092E30202C024
:100ED0001092E3028091D4029091D502853691055B
:100EE00008F47AC08091D002882309F475C010926A
:100EF000D5021092D402F801808263E0C8010E94FA
:100F0000590A1982188212C088819981893B9B40B5
:100F100068F081E08093E3028091D6028F5F809336
:100F2000D602F70180818925808304C00E94B4091C
:100F3000882351F38091E30281114BC00E94C809BC
:100F40001982188214C088819981893B9B4078F06E
:100F500081E08093E3028091D6028F5F8093D60276
:100F6000F7018081F0E28F27F701808304C00E949F
:100F7000A709882341F38091E302811127C0C801AA
:100F80000E941A0AF80180818093DC02818180939B
:100F9000DB026281062E000C770B880B990B0E94F6
:100FA000410C20E030E048EC52E40E94970B20E036
:100FB00030E040E752E40E94F60C6093D702709351
:100FC000D8028093D9029093DA02E0C01092E30233
:100FD000DDC01092E302DAC00E94B50465E083E050
:100FE0000E94B6006C016091EC027091ED02072E38
:100FF000000C880B990B0E94410C20E030E040E887
:101000005EE30E94F60C2B013C01B601DD0C880B5F
:10101000990B0E94410C20E030E040E45FE30E9425
:10102000F60C9B01AC01C301B2010E94260B0E9489
:10103000090C7093ED026093EC02CB010E94E10376
:10104000BC01990F880B990B0E94410C2091E4027E
:101050003091E5024091E6025091E7020E94F60CC1
:101060000E94090C6093EE027093EF02F801708306
:10107000618365E082E00E94B6006C016091EA0243
:101080007091EB02072E000C880B990B0E94410C0B
:1010900020E030E040E85EE30E94F60C2B013C01CA
:1010A000B601DD0C880B990B0E94410C20E030E06A
:1010B00040E45FE30E94F60C9B01AC01C301B20166
:1010C0000E94260B0E94090C7093EB026093EA02C7
:1010D000072E000C880B990B0E94410C0E941E04E5
:1010E0009C012C5F3F4F2930310528F41092E90212
:1010F0001092E80217C08E3291052CF03092E9026E
:101100002092E8020FC0833DFFEF9F072CF09093E1
:10111000E9028093E80206C083ED9FEF9093E90215
:101120008093E802F5018081F801828363E0C801C1
:101130000E94590AF5E3FA95F1F700001982188226
:1011400012C088819981893B9B4068F081E080933F
:10115000E3028091D6028F5F8093D602F7018081EF
:101160008925808304C00E94B409882351F38091AB
:10117000E302811106C081E08093D2021092D10275
:1011800005C01092E30281E08093D1028FE39CE9D5
:101190000197F1F700C0000024CD8091D402909116
:1011A000D502C29749F41BCE8091D4029091D5020A
:1011B000C29709F08FCE10CF8091D4029091D502C2
:1011C0008536910508F093CE07CF1F920F920FB688
:1011D0000F9211242F933F934F935F936F937F93BD
:1011E0008F939F93AF93BF93EF93FF938091D2021E
:1011F0008823C9F16EE081E00E9486038091D602C7
:10120000811105C08FE992E00E94A2032AC09FEFDE
:10121000980F923028F483EA92E00E94A20321C042
:101220009DEF980F933028F487EA92E00E94A20382
:1012300018C08650843028F48BEA92E00E94A20302
:1012400010C061E081E00E9486038FEA92E00E9474
:10125000A20361E082E00E94860380EC92E00E949B
:10126000A2031092D602FF91EF91BF91AF919F918F
:101270008F917F916F915F914F913F912F910F903F
:101280000FBE0F901F9018951F920F920FB60F92DE
:1012900011242F933F934F935F936F937F938F937B
:1012A0009F93AF93BF93EF93FF9367E08AE00E9411
:1012B0008802882331F08091CE028F5F8093CE0226
:1012C00005C08091CE0281508093CE028091CE02E3
:1012D00082301CF01092CE0205C088231CF481E0FD
:1012E0008093CE02FF91EF91BF91AF919F918F912B
:1012F0007F916F915F914F913F912F910F900FBE12
:101300000F901F9018951F920F920FB60F921124F5
:101310008F939F931092CF029091D00281E0892702
:101320008093D0029F918F910F900FBE0F901F90CE
:101330001895549A209A5C98289AEA98E9E6F0E081
:10134000808180628083EA9A0E94E10A08958091F8
:10135000F302811107C028988FEF0E94EC0A289AA7
:101360008074089580E0089528988FEF0E94EC0A19
:10137000289A80720895CF93C62F28988F71806223
:101380000E94E70A8C2F0E94E70A289ACF910895BD
:101390001092F30260E787E00E94BB09289881EE73
:1013A0000E94E70A289A6BE580E00E94BB095C9ADC
:1013B00008956CE685E00E94BB096FEF84E00E940F
:1013C000BB0960E081E10E94BB0963E082E10E9409
:1013D000BB0960E083E10E94BB0960E084E10E94F8
:1013E000BB0960E085E10E94BB0960E086E10E94E4
:1013F000BB0966E286E00E94BB0963E081E00E94CF
:10140000BB0963E082E00E94BB096FE484E00E94B4
:10141000BB091092F30260E787E00E94BB0928989D
:1014200081EE0E94E70A289A6BE580E00E94BB09E2
:101430005C9A0895CF93DF93EC01289881E60E948F
:10144000E70A43E0BE01CE010E94010B289A60E446
:1014500087E00E94BB09DF91CF9108951F93CF933E
:10146000DF93EB01142F28988F7180620E94E70AA6
:10147000612FCE010E94F20A289ADF91CF911F912D
:1014800008955C9845E0BC018BE00E942E0A5C9AAE
:101490000895CF93DF93EC0145E0BC018AE00E9400
:1014A0002E0A45E0BE0180E10E942E0ADF91CF9115
:1014B00008951F93CF93DF93EC01162F5C9881E082
:1014C0008093F3026AE580E00E94BB09289881EED0
:1014D0000E94E70A289A60E787E00E94BB092898E3
:1014E00080EA0E94E70A612FCE010E94F20A289A40
:1014F0005C9ADF91CF911F9108951F920F920FB6C2
:101500000F9211248F938091F3028F910F900FBE51
:101510000F901F901895EF92FF920F931F93CF9308
:10152000DF93CDB7DEB7C054D1090FB6F894DEBF54
:101530000FBECDBF8C01009731F480E30E94140BE5
:10154000E12CF12C16C020E030E0EAE0F0E001C030
:101550009701BF010E94630DCB0179014FEFE41A9F
:10156000F40A0097A9F7112324F4790182E0E80E28
:10157000F11C4AE0BE016F5F7F4FC8010E948B0DD6
:101580001E141F046CF48E010F5F1F4FE00EF11E3E
:10159000F80181918F010E94140B0E151F05C1F7F0
:1015A0008AE00E94140BC05CDF4F0FB6F894DEBFD8
:1015B0000FBECDBFDF91CF911F910F91FF90EF90A4
:1015C000089584B1876084B981E58CBD08958EBD8E
:1015D0000DB407FEFDCF08958EBD0DB407FEFDCFFF
:1015E0008EB50895662361F0FC019C01260F311D24
:1015F00091919EBD0DB407FEFDCFE217F307C1F731
:101600000895442381F0FC01A62FB72F9C01240FDD
:10161000311D91919EBD0DB407FEFDCF9EB59D93EA
:10162000E217F307B1F70895E0ECF0E0908195FF41
:10163000FDCF8093C600089598E19093C10096E095
:101640009093C2008093C40008955058BB27AA27E6
:101650000E943D0B0C94B70C0E94A90C38F00E941C
:10166000B00C20F039F49F3F19F426F40C94A60C2A
:101670000EF4E095E7FB0C94A00CE92F0E94C80C37
:1016800058F3BA17620773078407950720F079F4B7
:10169000A6F50C94EA0C0EF4E0950B2EBA2FA02DB3
:1016A0000B01B90190010C01CA01A0011124FF270F
:1016B000591B99F0593F50F4503E68F11A16F0400A
:1016C000A22F232F342F4427585FF3CF4695379509
:1016D0002795A795F0405395C9F77EF41F16BA0BCE
:1016E000620B730B840BBAF09150A1F0FF0FBB1F7C
:1016F000661F771F881FC2F70EC0BA0F621F731FC5
:10170000841F48F4879577956795B795F7959E3F21
:1017100008F0B0CF9395880F08F09927EE0F9795B2
:10172000879508950E947C0C08F481E008950E943A
:10173000AB0B0C94B70C0E94B00C58F00E94A90C93
:1017400040F029F45F3F29F00C94A00C51110C9447
:10175000EB0C0C94A60C0E94C80C68F39923B1F30F
:10176000552391F3951B550BBB27AA2762177307C7
:10177000840738F09F5F5F4F220F331F441FAA1F5B
:10178000A9F335D00E2E3AF0E0E832D09150504017
:10179000E695001CCAF72BD0FE2F29D0660F771FC5
:1017A000881FBB1F261737074807AB07B0E809F0AB
:1017B000BB0B802DBF01FF2793585F4F3AF09E3F30
:1017C000510578F00C94A00C0C94EB0C5F3FE4F303
:1017D000983ED4F3869577956795B795F7959F5F73
:1017E000C9F7880F911D9695879597F90895E1E0BF
:1017F000660F771F881FBB1F621773078407BA071E
:1018000020F0621B730B840BBA0BEE1F88F7E09578
:1018100008950E94100C6894B1110C94EB0C08957B
:101820000E94D00C88F09F5798F0B92F9927B75194
:10183000B0F0E1F0660F771F881F991F1AF0BA9574
:10184000C9F714C0B13091F00E94EA0CB1E00895DC
:101850000C94EA0C672F782F8827B85F39F0B93FCE
:10186000CCF3869577956795B395D9F73EF4909527
:101870008095709561957F4F8F4F9F4F0895E894A5
:1018800009C097FB3EF490958095709561957F4FC8
:101890008F4F9F4F9923A9F0F92F96E9BB27939576
:1018A000F695879577956795B795F111F8CFFAF486
:1018B000BB0F11F460FF1BC06F5F7F4F8F4F9F4FB7
:1018C00016C0882311F096E911C0772321F09EE815
:1018D000872F762F05C0662371F096E8862F70E07B
:1018E00060E02AF09A95660F771F881FDAF7880F55
:1018F0009695879597F90895990F0008550FAA0BAB
:10190000E0E8FEEF16161706E807F907C0F0121612
:101910001306E407F50798F0621B730B840B950B15
:1019200039F40A2661F0232B242B252B21F408956A
:101930000A2609F4A140A6958FEF811D811D089507
:1019400097F99F6780E870E060E008959FEF80EC72
:10195000089500240A941616170618060906089515
:1019600000240A9412161306140605060895092E7B
:101970000394000C11F4882352F0BB0F40F4BF2BEA
:1019800011F460FF04C06F5F7F4F8F4F9F4F08952A
:1019900057FD9058440F551F59F05F3F71F0479520
:1019A000880F97FB991F61F09F3F79F08795089505
:1019B000121613061406551FF2CF4695F1DF08C024
:1019C000161617061806991FF1CF86957105610541
:1019D00008940895E894BB2766277727CB0197F9E9
:1019E00008950E947C0C08F48FEF08950E94090D61
:1019F0000C94B70C0E94A90C38F00E94B00C20F097
:101A0000952311F00C94A00C0C94A60C11240C94AA
:101A1000EB0C0E94C80C70F3959FC1F3950F50E03A
:101A2000551F629FF001729FBB27F00DB11D639F90
:101A3000AA27F00DB11DAA1F649F6627B00DA11D36
:101A4000661F829F2227B00DA11D621F739FB00DDC
:101A5000A11D621F839FA00D611D221F749F33274C
:101A6000A00D611D231F849F600D211D822F762FE5
:101A70006A2F11249F5750409AF0F1F088234AF0C2
:101A8000EE0FFF1FBB1F661F771F881F915050402E
:101A9000A9F79E3F510580F00C94A00C0C94EB0C20
:101AA0005F3FE4F3983ED4F3869577956795B795B5
:101AB000F795E7959F5FC1F7FE2B880F911D9695CF
:101AC000879597F9089597FB072E16F4009407D091
:101AD00077FD09D00E94770D07FC05D03EF4909564
:101AE00081959F4F0895709561957F4F0895AA1B2A
:101AF000BB1B51E107C0AA1FBB1FA617B70710F0F9
:101B0000A61BB70B881F991F5A95A9F7809590952A
:101B1000BC01CD010895BB274A3031F4992322F44A
:101B2000BDE2909581959F4F0C94970DBB27FB01CB
:101B30005527AA27880F991FAA1FA41710F0A41BC6
:101B400083955051B9F7A05DAA3308F0A95DA19320
:101B5000009779F7B111B1931192CB010C94B00DAC
:101B6000DC01FC01672F71917723E1F7329704C004
:101B70007C916D9370836291AE17BF07C8F308958F
:041B8000F894FFCF07
:101B8400D7D7D7D7D7E7E7E7E7E74C41543A004C34
:101B94004F4E3A00496E697469616C697A696E677F
:101BA4002E2E2E00496E697469616C697A617469BC
:101BB4006F6E2020004E4F20434F4E4E45435449F4
:101BC4004F4E00436F6E6E65637465642020202061
:101BD400005350454544203D202020202020202033
:101BE40000475053204F464620202020202000202C
:101BF4002020202020202020202020202020200001
:101C0400436F6E6E65637465642C202020005761F9
:101C14006974696E67206F6E204750532020002A34
:101C24002A2A002A2A20002A2020004F4646004360
:101C34004F4E4E454354494F4E204C4F53542C0065
:0E1C4400524553455420445249564552000023
:00000001FF
